:100000000C945D000C9485000C9485000C94850084
:100010000C9485000C9485000C9485000C9485004C
:100020000C9485000C9485000C9485000C9485003C
:100030000C9485000C9485000C9485000C9485002C
:100040000C9480040C9485000C944E040C942804A9
:100050000C9485000C9485000C9485000C9485000C
:100060000C9485000C94850000000008000201003B
:100070000003040700000000000000000000000072
:10008000250028002B0000000000240027002A0083
:10009000040404040404040402020202020203032E
:1000A0000303030301020408102040800102040836
:1000B0001020010204081020CA0411241FBECFEF33
:1000C000D8E0DEBFCDBF11E0A0E0B1E0E8E3FCE0A6
:1000D00002C005900D92AE36B107D9F722E0AEE628
:1000E000B1E001C01D92AC32B207E1F710E0CDE5FE
:1000F000D0E004C02197FE010E941406CC35D10740
:10010000C9F70E9414050C941A060C94000090E0A4
:10011000FC01EC55FF4F249180579F4FFC018491C7
:10012000882399F090E0880F991FFC01EA57FF4F50
:10013000A591B491FC01E458FF4F859194918FB73C
:10014000F894EC91E22BEC938FBF0895AF92BF929D
:10015000CF92DF92EF92FF920F931F93CF93DF9393
:100160006C017B018B01040F151FEB015E01AE18C2
:10017000BF08C017D10759F06991D601ED91FC91E4
:100180000190F081E02DC6010995892B79F7C50111
:10019000DF91CF911F910F91FF90EF90DF90CF9063
:1001A000BF90AF900895FC01538D448D252F30E012
:1001B000842F90E0821B930B541710F0CF96089574
:1001C00001970895FC01918D828D981761F0A28DA1
:1001D000AE0FBF2FB11D5D968C91928D9F5F9F7367
:1001E000928F90E008958FEF9FEF0895FC01918D1D
:1001F000828D981731F0828DE80FF11D858D90E08A
:1002000008958FEF9FEF0895FC01918D228D892F26
:1002100090E0805C9F4F821B91098F73992708950E
:1002200087E791E00E94040121E0892B09F420E096
:10023000822F089580E090E0892B29F00E94100120
:1002400081110C9400000895FC01A48DA80FB92F12
:10025000B11DA35ABF4F2C91848D90E001968F73EE
:100260009927848FA689B7892C93A089B1898C910D
:10027000837080648C93938D848D981306C002885C
:10028000F389E02D80818F7D80830895EF92FF9226
:100290000F931F93CF93DF93EC0181E0888F9B8DA9
:1002A0008C8D98131AC0E889F989808185FF15C063
:1002B0009FB7F894EE89FF896083E889F989808186
:1002C0008370806480839FBF81E090E0DF91CF9155
:1002D0001F910F91FF90EF900895F62E0B8D10E077
:1002E0000F5F1F4F0F731127E02E8C8D8E110CC0E6
:1002F0000FB607FCFACFE889F989808185FFF5CF31
:10030000CE010E942401F1CFEB8DEC0FFD2FF11DEA
:10031000E35AFF4FF0829FB7F8940B8FEA89FB896D
:1003200080818062CFCFCF93DF93EC01888D8823CB
:10033000B9F0AA89BB89E889F9898C9185FD03C048
:10034000808186FD0DC00FB607FCF7CF8C9185FF2D
:10035000F2CF808185FFEDCFCE010E942401E9CF4D
:10036000DF91CF91089590E0FC01E859FF4F24916F
:10037000FC01EC55FF4F3491FC01E057FF4FE49135
:10038000EE23C9F0222339F0233001F1A8F4213003
:1003900019F1223029F1F0E0EE0FFF1FE458FF4F72
:1003A000A591B4918FB7F894EC91611126C0309566
:1003B0003E233C938FBF08952730A9F02830C9F021
:1003C000243049F7809180008F7D03C080918000A8
:1003D0008F7780938000DFCF84B58F7784BDDBCFAC
:1003E00084B58F7DFBCF8091B0008F778093B00074
:1003F000D2CF8091B0008F7DF9CF3E2BDACF3FB7BF
:10040000F8948091730190917401A0917501B0915D
:10041000760126B5A89B05C02F3F19F00196A11DB6
:10042000B11D3FBFBA2FA92F982F8827BC01CD013E
:10043000620F711D811D911D42E0660F771F881F9D
:10044000991F4A95D1F708958F929F92AF92BF92CC
:10045000CF92DF92EF92FF920E94FF014B015C016D
:1004600082E3C82ED12CE12CF12C0E94FF016819E7
:1004700079098A099B09683E734081059105A8F3B3
:1004800021E0C21AD108E108F10888EE880E83E065
:10049000981EA11CB11CC114D104E104F10429F778
:1004A000FF90EF90DF90CF90BF90AF909F908F9094
:1004B0000895089590E080E00895CF93DF93EC01D4
:1004C00060E08E810E94B30161E08E810E94B301E1
:1004D00060E08E810E94B3018BE891E00197F1F713
:1004E000DF91CF910895CF92DF92EF92FF920F9319
:1004F0001F93CF93DF936C017C0187E0E80EF11C22
:10050000D0E0C0E0062F10E0B8010C2E02C07595B7
:1005100067950A94E2F76170F70181917F010E946B
:10052000B3012196C430D10579F7C601DF91CF918F
:100530001F910F91FF90EF90DF90CF900C945D0290
:10054000CF92DF92EF92FF920F931F93CF93DF939F
:10055000EC01F62E642F8C810E94B3018D818F3FB8
:1005600019F060E00E94B3010F2D10E08F8584FF29
:1005700025C06E0187E0C80ED11CF12CE12CB8011A
:100580000E2C02C0759567950A94E2F76170F6012A
:1005900081916F010E94B301FFEFEF1AFF0A88E01B
:1005A000E816F10461F7CE01DF91CF911F910F9111
:1005B000FF90EF90DF90CF900C945D02B80184E043
:1005C000759567958A95E1F7CE010E9473026F2DAC
:1005D000CE01DF91CF911F910F91FF90EF90DF90AF
:1005E000CF900C94730240E0682F84E192E00C9469
:1005F000A00281E00E94F3028BE39FE10197F1F7F3
:100600000895CF93DF93823029F49091230298606C
:1006100090932302809327021092280280E4809313
:10062000290280E180932A0280E580932B02809149
:1006300018020E948700809119028F3F11F00E94DA
:10064000870080911A020E948700C4E1D2E09E01D7
:10065000245132408091230284FD0AC084E090E05E
:100660002196281739073CF48E810E948700EFCF2E
:1006700088E090E0F5CF8BE39DE00197F1F760E033
:10068000809118020E94B30160E080911A020E94DA
:10069000B301809119028F3F19F060E00E94B3010D
:1006A0008091230284FD34C063E084E192E00E94E3
:1006B0007302CBE4D6E4CE010197F1F763E084E165
:1006C00092E00E9473022197F1F763E084E192E0E7
:1006D0000E94730283E592E00197F1F762E084E102
:1006E00092E00E9473028091230280620E94F302D2
:1006F00084E0809324028CE00E94F3020E94F902BD
:1007000082E08093250286E0DF91CF910C94F30282
:1007100080620E94F3028BE496E40197F1F78091E6
:10072000230280620E94F30283E592E00197F1F7D1
:100730008091230280620E94F302D5CF909127021C
:10074000891710F08FEF890FE82FF0E0EC5EFD4F76
:10075000848980680C94F30241E00E94A00281E049
:1007600090E00895FB0101900020E9F73197AF0177
:10077000461B570BDC01ED91FC910280F381E02DCB
:1007800009948F929F92AF92BF920F931F93CF9332
:10079000DF93CDB7DEB7A1970FB6F894DEBF0FBEDB
:1007A000CDBF19A2423008F44AE08E010F5D1F4F01
:1007B000842E912CB12CA12CA50194010E94F2054C
:1007C000E62FB901CA01EA3004F5E05DD801EE93E5
:1007D0008D01232B242B252B79F790E080E01097B7
:1007E00029F0BD0187E791E00E94B203A1960FB600
:1007F000F894DEBF0FBECDBFDF91CF911F910F9157
:10080000BF90AF909F908F900895E95CDFCFCF921B
:10081000DF92EF92FF92CF93DF936B017C016DE249
:1008200087E791E00E944601EC0166277727CB011C
:100830006C197D098E099F094AE00E94C1038C0F43
:100840009D1FDF91CF91FF90EF90DF90CF900895A3
:100850001F920F920FB60F9211242F933F934F9335
:100860005F936F937F938F939F93AF93BF93EF9318
:10087000FF9387E791E00E942401FF91EF91BF91E0
:10088000AF919F918F917F916F915F914F913F9128
:100890002F910F900FBE0F901F9018951F920F92DF
:1008A0000FB60F9211242F938F939F93EF93FF9383
:1008B000E0918701F09188018081E0918D01F091B4
:1008C0008E0182FD1BC09081809190018F5F8F739C
:1008D00020919101821741F0E0919001F0E0E958F8
:1008E000FE4F958F80939001FF91EF919F918F9193
:1008F0002F910F900FBE0F901F9018958081F4CF0D
:100900001F920F920FB60F9211242F933F938F9344
:100910009F93AF93BF9380916F0190917001A091CD
:100920007101B091720130916E0123E0230F2D37D8
:1009300058F50196A11DB11D20936E0180936F01A2
:1009400090937001A0937101B09372018091730133
:1009500090917401A0917501B09176010196A11D4D
:10096000B11D8093730190937401A0937501B093AE
:100970007601BF91AF919F918F913F912F910F90F1
:100980000FBE0F901F90189526E8230F0296A11D09
:10099000B11DD2CFE7E7F1E01382128288EE93E037
:1009A000A0E0B0E084839583A683B78384E091E0E0
:1009B0009183808385EC90E09587848784EC90E038
:1009C0009787868780EC90E0918B808B81EC90E01C
:1009D000938B828B82EC90E0958B848B86EC90E0FD
:1009E000978B868B118E128E138E148EE4E1F2E0BB
:1009F0001382128286E191E0918380838CE084836C
:100A00008FEF85838BE0868385E0878384E0808712
:100A100083E0818782E08287138614861586168696
:100A2000178681E00C940103789484B5826084BDBC
:100A300084B5816084BD85B5826085BD85B58160E2
:100A400085BD80916E00816080936E001092810060
:100A5000809181008260809381008091810081601B
:100A600080938100809180008160809380008091DC
:100A7000B10084608093B1008091B0008160809368
:100A8000B00080917A00846080937A0080917A002F
:100A9000826080937A0080917A00816080937A00EE
:100AA00080917A00806880937A001092C10082E081
:100AB0000E940103E0918701F091880182E0808328
:100AC000E0918301F09184011082E0918501F09121
:100AD00086018FEC808310928F01E0918B01F09161
:100AE0008C0186E08083E0918901F0918A01808108
:100AF00080618083E0918901F0918A018081886022
:100B00008083E0918901F0918A01808180688083EF
:100B1000E0918901F0918A0180818F7D808380E05E
:100B20000E949E036EE171E084E192E00E94B203B4
:100B300081E00E949E036EE271E084E192E00E94F7
:100B4000B2030E942402C0E0D0E087E791E00E9457
:100B5000E2008A30910549F50E94F90261E471E0F2
:100B600087E791E00E94B2034AE06AE070E080E02B
:100B700090E00E94C1036CE471E087E791E00E947D
:100B8000B20381E00E949E036FE471E084E192E091
:100B90000E94B2030E9424022097B9F20E94100121
:100BA000882399F20E940000D0CF4497A9F70E94B1
:100BB000F90261E471E087E791E00E94B2034AE044
:100BC00064E170E080E090E00E94C1036CE471E0B9
:100BD00087E791E00E94B20381E00E949E036EE5E8
:100BE00071E0D4CFA1E21A2EAA1BBB1BFD010DC0E0
:100BF000AA1FBB1FEE1FFF1FA217B307E407F507CD
:100C000020F0A21BB30BE40BF50B661F771F881FA8
:100C1000991F1A9469F760957095809590959B013E
:100C2000AC01BD01CF010895EE0FFF1F0590F491B7
:080C3000E02D0994F894FFCFB8
:100C3800000000004601A600D30093010401E20071
:100C4800F60000000000AC03A6005A025902534502
:100C58004355524954592053595354454D004F4612
:100C6800205245535452494354454420415245412A
:100C78000050495253454E534F523A000D0A005303
:100C88004543555249545920425245414B00535906
:0E0C98005354454D20534543555245440000EA
:00000001FF
