:020000040000FA
:100000000C9462000C948A000C948A000C948A0070
:100010000C948A000C948A000C948A000C948A0038
:100020000C948A000C948A000C948A000C948A0028
:100030000C948A000C948A000C948A000C948A0018
:100040000C943D040C948A000C940B040C94E5036E
:100050000C948A000C948A000C948A000C948A00F8
:100060000C948A000C948A000000000024002700F1
:100070002A0000000000250028002B0000000000DE
:1000800023002600290004040404040404040202DA
:100090000202020203030303030301020408102007
:1000A0004080010204081020010204081020000012
:1000B0000008000201000003040700000000000027
:1000C0000000870411241FBECFEFD8E0DEBFCDBFF4
:1000D00011E0A0E0B1E0EEE6FBE002C005900D9279
:1000E000A036B107D9F722E0A0E6B1E001C01D9229
:1000F000AE31B207E1F710E0C2E6D0E004C02197CC
:10010000FE010E94AF05C136D107C9F70E94D10494
:100110000C94B5050C940000AF92BF92CF92DF9281
:10012000EF92FF920F931F93CF93DF936C017B01AC
:100130008B01040F151FEB015E01AE18BF08C0173D
:10014000D10759F06991D601ED91FC910190F081B0
:10015000E02DC6010995892B79F7C501DF91CF9173
:100160001F910F91FF90EF90DF90CF90BF90AF90D5
:100170000895FC01538D448D252F30E0842F90E0AD
:10018000821B930B541710F0CF9608950197089592
:10019000FC01918D828D981761F0A28DAE0FBF2F5B
:1001A000B11D5D968C91928D9F5F9F73928F90E0B1
:1001B00008958FEF9FEF0895FC01918D828D981720
:1001C00031F0828DE80FF11D858D90E008958FEF5D
:1001D0009FEF0895FC01918D228D892F90E0805C26
:1001E0009F4F821B91098F739927089589E691E0AB
:1001F0000E94EA0021E0892B09F420E0822F089573
:1002000080E090E0892B29F00E94F60081110C9487
:1002100000000895FC01A48DA80FB92FB11DA35AA9
:10022000BF4F2C91848D90E001968F739927848F16
:10023000A689B7892C93A089B1898C918370806439
:100240008C93938D848D981306C00288F389E02DDA
:1002500080818F7D80830895EF92FF920F931F938B
:10026000CF93DF93EC0181E0888F9B8D8C8D981369
:100270001AC0E889F989808185FF15C09FB7F89475
:10028000EE89FF896083E889F989808183708064C1
:1002900080839FBF81E090E0DF91CF911F910F910C
:1002A000FF90EF900895F62E0B8D10E00F5F1F4F1B
:1002B0000F731127E02E8C8D8E110CC00FB607FC2A
:1002C000FACFE889F989808185FFF5CFCE010E94B8
:1002D0000A01F1CFEB8DEC0FFD2FF11DE35AFF4F1B
:1002E000F0829FB7F8940B8FEA89FB898081806246
:1002F000CFCFCF93DF93EC01888D8823B9F0AA8903
:10030000BB89E889F9898C9185FD03C0808186FDD0
:100310000DC00FB607FCF7CF8C9185FFF2CF80811F
:1003200085FFEDCFCE010E940A01E9CFDF91CF9189
:100330000895833081F028F4813099F08230A9F05B
:1003400008958730A9F08830C9F08430B1F48091E5
:1003500080008F7D03C0809180008F778093800024
:10036000089584B58F7784BD089584B58F7DFBCFC4
:100370008091B0008F778093B00008958091B00095
:100380008F7DF9CF1F93CF93DF93282F30E0F901B2
:10039000E255FF4F8491F901E656FF4FD491F901E0
:1003A000EA57FF4FC491CC23A9F0162F81110E9468
:1003B0009901EC2FF0E0EE0FFF1FEE58FF4FA591D3
:1003C000B4918FB7F894EC91111108C0D095DE2349
:1003D000DC938FBFDF91CF911F910895DE2BF8CF73
:1003E000CF93DF9390E0FC01E656FF4F24918A57AC
:1003F0009F4FFC0184918823D1F090E0880F991FD2
:10040000FC01E859FF4FA591B491FC01EE58FF4F54
:10041000C591D49161110EC09FB7F8948C91E22FD1
:10042000E0958E238C932881E223E8839FBFDF91A0
:10043000CF9108958FB7F894EC91E22BEC938FBF96
:10044000F6CF3FB7F8948091650190916601A09135
:100450006701B091680126B5A89B05C02F3F19F030
:100460000196A11DB11D3FBFBA2FA92F982F882734
:10047000BC01CD01620F711D811D911D42E0660F0F
:10048000771F881F991F4A95D1F708958F929F92E1
:10049000AF92BF92CF92DF92EF92FF920E94210221
:1004A0004B015C0182E3C82ED12CE12CF12C0E947F
:1004B0002102681979098A099B09683E7340810500
:1004C0009105A8F321E0C21AD108E108F10888EEED
:1004D000880E83E0981EA11CB11CC114D104E10454
:1004E000F10429F7FF90EF90DF90CF90BF90AF908D
:1004F0009F908F900895089590E080E00895FC010A
:1005000001900020E9F73197AF01481B590BBC015E
:1005100086E092E00C948C00CF93DF93EC0160E0D6
:100520008E810E94C20161E08E810E94C20160E062
:100530008E810E94C2018BE891E00197F1F7DF9173
:10054000CF910895CF92DF92EF92FF920F931F9376
:10055000CF93DF936C017C0187E0E80EF11CD0E0C3
:10056000C0E0062F10E0B8010C2E02C0759567950B
:100570000A94E2F76170F70181917F010E94C20144
:100580002196C430D10579F7C601DF91CF911F9133
:100590000F91FF90EF90DF90CF900C948C02CF9250
:1005A000DF92EF92FF920F931F93CF93DF93EC01B3
:1005B000F62E642F8C810E94C2018D818F3F19F02D
:1005C00060E00E94C2010F2D10E08F8584FF25C0DE
:1005D0006E0187E0C80ED11CF12CE12CB8010E2C65
:1005E00002C0759567950A94E2F76170F6018191F2
:1005F0006F010E94C201FFEFEF1AFF0A88E0E816C0
:10060000F10461F7CE01DF91CF911F910F91FF901F
:10061000EF90DF90CF900C948C02B80184E0759538
:1006200067958A95E1F7CE010E94A2026F2DCE0157
:10063000DF91CF911F910F91FF90EF90DF90CF90BE
:100640000C94A20240E0682F86E092E00C94CF0266
:1006500081E00E9422038BE39FE10197F1F7089567
:10066000CF93DF93823029F4909115029860909394
:1006700015028093190210921A0280E480931B02E3
:1006800080E180931C0280E580931D0261E08091EF
:100690000A020E94F00180910B028F3F19F061E085
:1006A0000E94F00161E080910C020E94F001C6E01E
:1006B000D2E09E01265032408091150284FD0BC08D
:1006C00084E090E021962817390744F461E08E8198
:1006D0000E94F001EECF88E090E0F4CF8BE39DE044
:1006E0000197F1F760E080910A020E94C20160E088
:1006F00080910C020E94C20180910B028F3F19F081
:1007000060E00E94C2018091150284FD34C063E064
:1007100086E092E00E94A202CBE4D6E4CE010197EB
:10072000F1F763E086E092E00E94A2022197F1F7E0
:1007300063E086E092E00E94A20283E592E00197E6
:10074000F1F762E086E092E00E94A2028091150239
:1007500080620E94220384E0809316028CE00E9453
:1007600022030E94280382E08093170286E0DF9133
:10077000CF910C94220380620E9422038BE496E4C2
:100780000197F1F78091150280620E94220383E5B0
:1007900092E00197F1F78091150280620E94220396
:1007A000D5CF90911902891710F08FEF890FE82F9C
:1007B000F0E0EA5FFD4F848980680C94220341E0F9
:1007C0000E94CF0281E090E008951F920F920FB631
:1007D0000F9211242F933F934F935F936F937F93C7
:1007E0008F939F93AF93BF93EF93FF9389E691E02D
:1007F0000E940A01FF91EF91BF91AF919F918F915C
:100800007F916F915F914F913F912F910F900FBE0C
:100810000F901F9018951F920F920FB60F921124F0
:100820002F938F939F93EF93FF93E0917901F09132
:100830007A018081E0917F01F091800182FD1BC0EF
:100840009081809182018F5F8F7320918301821745
:1008500041F0E0918201F0E0E759FE4F958F8093DF
:100860008201FF91EF919F918F912F910F900FBE79
:100870000F901F9018958081F4CF1F920F920FB6A2
:100880000F9211242F933F938F939F93AF93BF9316
:100890008091610190916201A0916301B091640126
:1008A0003091600123E0230F2D3758F50196A11DEB
:1008B000B11D209360018093610190936201A09328
:1008C0006301B09364018091650190916601A091EC
:1008D0006701B09168010196A11DB11D809365016A
:1008E00090936601A0936701B0936801BF91AF91A7
:1008F0009F918F913F912F910F900FBE0F901F905E
:10090000189526E8230F0296A11DB11DD2CFE9E666
:10091000F1E01382128288EE93E0A0E0B0E08483DD
:100920009583A683B78384E091E09183808385ECEF
:1009300090E09587848784EC90E09787868780ECA9
:1009400090E0918B808B81EC90E0938B828B82EC9A
:1009500090E0958B848B86EC90E0978B868B118E44
:10096000128E138E148EE6E0F2E01382128286E17C
:1009700091E0918380838CE084838FEF85838BE08B
:10098000868385E0878384E0808783E0818782E0B7
:1009900082871386148615861686178681E00C9446
:1009A0003003789484B5826084BD84B5816084BD51
:1009B00085B5826085BD85B5816085BD80916E00FD
:1009C000816080936E00109281008091810082602E
:1009D000809381008091810081608093810080916B
:1009E00080008160809380008091B100846080935A
:1009F000B1008091B00081608093B00080917A0056
:100A0000846080937A0080917A00826080937A007B
:100A100080917A00816080937A0080917A0080686A
:100A200080937A001092C10082E00E943003E0912E
:100A30007901F0917A0182E08083E0917501F09173
:100A400076011082E0917701F09178018FEC80833C
:100A500010928101E0917D01F0917E0186E080831A
:100A6000E0917B01F0917C01808180618083E09145
:100A70007B01F0917C01808188608083E0917B0123
:100A8000F0917C01808180688083E0917B01F0910E
:100A90007C0180818F7D808360E08AE00E94F0018C
:100AA00080E00E94D1038EE191E00E947F0281E00C
:100AB0000E94D1038EE291E00E947F020E944602D2
:100AC000C8EBD0E004EA10E090E9E92E90E0F92EBE
:100AD00020E0C22E20E0D22EFE018491F801A490E5
:100AE000F701B490BB2041F181110E949901EB2DD7
:100AF000F0E0EE0FFF1FE458FF4FA591B4918C91E9
:100B0000A822D1F00E9428036AE089E691E00E94C1
:100B10002C0181E00E94D10381E491E00E947F02D8
:100B20000E944602C114D104B9F20E94F600882343
:100B300099F20E940000D0CF0E94280364E189E668
:100B400091E00E942C0181E00E94D1034EE050E030
:100B500060E571E086E092E00E948C00E1CFEE0F4C
:100B6000FF1F0590F491E02D0994F894FFCF000049
:100B700000002C018C00B9007901EA00C800DC00FB
:100B800000000000DF038C007C027B0253454355CC
:100B9000524954592053595354454D004F46205201
:100BA0004553545249435445442041524541005312
:100BB0004543555249545920425245414B005359DF
:0E0BC0005354454D20534543555245440000C3
:107E0000112484B714BE81FFF0D085E080938100F7
:107E100082E08093C00088E18093C10086E0809377
:107E2000C20080E18093C4008EE0C9D0259A86E02C
:107E300020E33CEF91E0309385002093840096BBD3
:107E4000B09BFECF1D9AA8958150A9F7CC24DD24C4
:107E500088248394B5E0AB2EA1E19A2EF3E0BF2EE7
:107E6000A2D0813461F49FD0082FAFD0023811F036
:107E7000013811F484E001C083E08DD089C08234E0
:107E800011F484E103C0853419F485E0A6D080C0E4
:107E9000853579F488D0E82EFF2485D0082F10E0AE
:107EA000102F00270E291F29000F111F8ED06801E7
:107EB0006FC0863521F484E090D080E0DECF843638
:107EC00009F040C070D06FD0082F6DD080E0C81688
:107ED00080E7D80618F4F601B7BEE895C0E0D1E017
:107EE00062D089930C17E1F7F0E0CF16F0E7DF06D8
:107EF00018F0F601B7BEE89568D007B600FCFDCFD4
:107F0000A601A0E0B1E02C9130E011968C91119780
:107F100090E0982F8827822B932B1296FA010C0160
:107F200087BEE89511244E5F5F4FF1E0A038BF0790
:107F300051F7F601A7BEE89507B600FCFDCF97BE46
:107F4000E89526C08437B1F42ED02DD0F82E2BD052
:107F50003CD0F601EF2C8F010F5F1F4F84911BD097
:107F6000EA94F801C1F70894C11CD11CFA94CF0C13
:107F7000D11C0EC0853739F428D08EE10CD085E9AC
:107F80000AD08FE07ACF813511F488E018D01DD067
:107F900080E101D065CF982F8091C00085FFFCCF94
:107FA0009093C60008958091C00087FFFCCF809118
:107FB000C00084FD01C0A8958091C6000895E0E648
:107FC000F0E098E1908380830895EDDF803219F02E
:107FD00088E0F5DFFFCF84E1DECF1F93182FE3DFCA
:107FE0001150E9F7F2DF1F91089580E0E8DFEE27F6
:047FF000FF270994CA
:027FFE00040479
:00000001FF
